{
  "contractName": "Token",
  "abi": [
    {
      "inputs": [],
      "stateMutability": "nonpayable",
      "type": "constructor"
    },
    {
      "anonymous": false,
      "inputs": [
        {
          "indexed": true,
          "internalType": "address",
          "name": "owner",
          "type": "address"
        },
        {
          "indexed": true,
          "internalType": "address",
          "name": "spender",
          "type": "address"
        },
        {
          "indexed": false,
          "internalType": "uint256",
          "name": "value",
          "type": "uint256"
        }
      ],
      "name": "Approval",
      "type": "event"
    },
    {
      "anonymous": false,
      "inputs": [
        {
          "indexed": true,
          "internalType": "address",
          "name": "from",
          "type": "address"
        },
        {
          "indexed": true,
          "internalType": "address",
          "name": "to",
          "type": "address"
        },
        {
          "indexed": false,
          "internalType": "uint256",
          "name": "value",
          "type": "uint256"
        }
      ],
      "name": "Transfer",
      "type": "event"
    },
    {
      "inputs": [
        {
          "internalType": "address",
          "name": "",
          "type": "address"
        },
        {
          "internalType": "address",
          "name": "",
          "type": "address"
        }
      ],
      "name": "allowance",
      "outputs": [
        {
          "internalType": "uint256",
          "name": "",
          "type": "uint256"
        }
      ],
      "stateMutability": "view",
      "type": "function",
      "constant": true
    },
    {
      "inputs": [
        {
          "internalType": "address",
          "name": "",
          "type": "address"
        }
      ],
      "name": "balanceOf",
      "outputs": [
        {
          "internalType": "uint256",
          "name": "",
          "type": "uint256"
        }
      ],
      "stateMutability": "view",
      "type": "function",
      "constant": true
    },
    {
      "inputs": [],
      "name": "decimals",
      "outputs": [
        {
          "internalType": "uint8",
          "name": "",
          "type": "uint8"
        }
      ],
      "stateMutability": "view",
      "type": "function",
      "constant": true
    },
    {
      "inputs": [],
      "name": "name",
      "outputs": [
        {
          "internalType": "string",
          "name": "",
          "type": "string"
        }
      ],
      "stateMutability": "view",
      "type": "function",
      "constant": true
    },
    {
      "inputs": [],
      "name": "owner",
      "outputs": [
        {
          "internalType": "address",
          "name": "",
          "type": "address"
        }
      ],
      "stateMutability": "view",
      "type": "function",
      "constant": true
    },
    {
      "inputs": [],
      "name": "symbol",
      "outputs": [
        {
          "internalType": "string",
          "name": "",
          "type": "string"
        }
      ],
      "stateMutability": "view",
      "type": "function",
      "constant": true
    },
    {
      "inputs": [],
      "name": "totalSupply",
      "outputs": [
        {
          "internalType": "uint256",
          "name": "",
          "type": "uint256"
        }
      ],
      "stateMutability": "view",
      "type": "function",
      "constant": true
    },
    {
      "inputs": [
        {
          "internalType": "uint256",
          "name": "",
          "type": "uint256"
        }
      ],
      "name": "trades",
      "outputs": [
        {
          "internalType": "address payable",
          "name": "seller",
          "type": "address"
        },
        {
          "internalType": "uint256",
          "name": "quantity",
          "type": "uint256"
        },
        {
          "internalType": "uint256",
          "name": "price",
          "type": "uint256"
        },
        {
          "internalType": "bool",
          "name": "isActive",
          "type": "bool"
        }
      ],
      "stateMutability": "view",
      "type": "function",
      "constant": true
    },
    {
      "inputs": [
        {
          "internalType": "address",
          "name": "_to",
          "type": "address"
        },
        {
          "internalType": "uint256",
          "name": "_value",
          "type": "uint256"
        }
      ],
      "name": "transfer",
      "outputs": [
        {
          "internalType": "bool",
          "name": "success",
          "type": "bool"
        }
      ],
      "stateMutability": "nonpayable",
      "type": "function"
    },
    {
      "inputs": [
        {
          "internalType": "address",
          "name": "_spender",
          "type": "address"
        },
        {
          "internalType": "uint256",
          "name": "_value",
          "type": "uint256"
        }
      ],
      "name": "approve",
      "outputs": [
        {
          "internalType": "bool",
          "name": "success",
          "type": "bool"
        }
      ],
      "stateMutability": "nonpayable",
      "type": "function"
    },
    {
      "inputs": [
        {
          "internalType": "address",
          "name": "_from",
          "type": "address"
        },
        {
          "internalType": "address",
          "name": "_to",
          "type": "address"
        },
        {
          "internalType": "uint256",
          "name": "_value",
          "type": "uint256"
        }
      ],
      "name": "transferFrom",
      "outputs": [
        {
          "internalType": "bool",
          "name": "success",
          "type": "bool"
        }
      ],
      "stateMutability": "nonpayable",
      "type": "function"
    },
    {
      "inputs": [
        {
          "internalType": "uint256",
          "name": "_quantity",
          "type": "uint256"
        },
        {
          "internalType": "uint256",
          "name": "_price",
          "type": "uint256"
        }
      ],
      "name": "createTrade",
      "outputs": [],
      "stateMutability": "nonpayable",
      "type": "function"
    },
    {
      "inputs": [
        {
          "internalType": "uint256",
          "name": "tradeIndex",
          "type": "uint256"
        }
      ],
      "name": "acceptTrade",
      "outputs": [],
      "stateMutability": "payable",
      "type": "function",
      "payable": true
    },
    {
      "inputs": [],
      "name": "getTradeCount",
      "outputs": [
        {
          "internalType": "uint256",
          "name": "",
          "type": "uint256"
        }
      ],
      "stateMutability": "view",
      "type": "function",
      "constant": true
    },
    {
      "inputs": [
        {
          "internalType": "uint256",
          "name": "index",
          "type": "uint256"
        }
      ],
      "name": "getTrade",
      "outputs": [
        {
          "internalType": "address",
          "name": "seller",
          "type": "address"
        },
        {
          "internalType": "uint256",
          "name": "quantity",
          "type": "uint256"
        },
        {
          "internalType": "uint256",
          "name": "price",
          "type": "uint256"
        },
        {
          "internalType": "bool",
          "name": "isActive",
          "type": "bool"
        }
      ],
      "stateMutability": "view",
      "type": "function",
      "constant": true
    }
  ],
  "bytecode": "0x60806040526040518060400160405280600d81526020017f596f7572546f6b656e4e616d650000000000000000000000000000000000000081525060019080519060200190620000519291906200015e565b506040518060400160405280600381526020017f59544e0000000000000000000000000000000000000000000000000000000000815250600290805190602001906200009f9291906200015e565b50620f42406003556012600460006101000a81548160ff021916908360ff160217905550348015620000d057600080fd5b50600354600560003373ffffffffffffffffffffffffffffffffffffffff1673ffffffffffffffffffffffffffffffffffffffff1681526020019081526020016000208190555033600460016101000a81548173ffffffffffffffffffffffffffffffffffffffff021916908373ffffffffffffffffffffffffffffffffffffffff16021790555062000272565b8280546200016c906200023d565b90600052602060002090601f016020900481019282620001905760008555620001dc565b82601f10620001ab57805160ff1916838001178555620001dc565b82800160010185558215620001dc579182015b82811115620001db578251825591602001919060010190620001be565b5b509050620001eb9190620001ef565b5090565b5b808211156200020a576000816000905550600101620001f0565b5090565b7f4e487b7100000000000000000000000000000000000000000000000000000000600052602260045260246000fd5b600060028204905060018216806200025657607f821691505b6020821081036200026c576200026b6200020e565b5b50919050565b61173380620002826000396000f3fe6080604052600436106100e85760003560e01c806370a082311161008a578063a3031b7711610059578063a3031b7714610324578063a9059cbb1461034f578063dd62ed3e1461038c578063ecb9fec3146103c9576100e8565b806370a08231146102685780638da5cb5b146102a557806395d89b41146102d057806396463fc6146102fb576100e8565b80631e6c598e116100c65780631e6c598e1461018057806323b872dd146101c05780632db25e05146101fd578063313ce5671461023d576100e8565b806306fdde03146100ed578063095ea7b31461011857806318160ddd14610155575b600080fd5b3480156100f957600080fd5b506101026103e5565b60405161010f9190610f99565b60405180910390f35b34801561012457600080fd5b5061013f600480360381019061013a9190611054565b610473565b60405161014c91906110af565b60405180910390f35b34801561016157600080fd5b5061016a610565565b60405161017791906110d9565b60405180910390f35b34801561018c57600080fd5b506101a760048036038101906101a291906110f4565b61056b565b6040516101b79493929190611142565b60405180910390f35b3480156101cc57600080fd5b506101e760048036038101906101e29190611187565b6105d8565b6040516101f491906110af565b60405180910390f35b34801561020957600080fd5b50610224600480360381019061021f91906110f4565b6108ca565b60405161023494939291906111e9565b60405180910390f35b34801561024957600080fd5b5061025261098d565b60405161025f919061124a565b60405180910390f35b34801561027457600080fd5b5061028f600480360381019061028a9190611265565b6109a0565b60405161029c91906110d9565b60405180910390f35b3480156102b157600080fd5b506102ba6109b8565b6040516102c79190611292565b60405180910390f35b3480156102dc57600080fd5b506102e56109de565b6040516102f29190610f99565b60405180910390f35b34801561030757600080fd5b50610322600480360381019061031d91906112ad565b610a6c565b005b34801561033057600080fd5b50610339610ba1565b60405161034691906110d9565b60405180910390f35b34801561035b57600080fd5b5061037660048036038101906103719190611054565b610bad565b60405161038391906110af565b60405180910390f35b34801561039857600080fd5b506103b360048036038101906103ae91906112ed565b610d4c565b6040516103c091906110d9565b60405180910390f35b6103e360048036038101906103de91906110f4565b610d71565b005b600180546103f29061135c565b80601f016020809104026020016040519081016040528092919081815260200182805461041e9061135c565b801561046b5780601f106104405761010080835404028352916020019161046b565b820191906000526020600020905b81548152906001019060200180831161044e57829003601f168201915b505050505081565b600081600660003373ffffffffffffffffffffffffffffffffffffffff1673ffffffffffffffffffffffffffffffffffffffff16815260200190815260200160002060008573ffffffffffffffffffffffffffffffffffffffff1673ffffffffffffffffffffffffffffffffffffffff168152602001908152602001600020819055508273ffffffffffffffffffffffffffffffffffffffff163373ffffffffffffffffffffffffffffffffffffffff167f8c5be1e5ebec7d5bd14f71427d1e84f3dd0314c0f7b2291e5b200ac8c7c3b9258460405161055391906110d9565b60405180910390a36001905092915050565b60035481565b6000818154811061057b57600080fd5b90600052602060002090600402016000915090508060000160009054906101000a900473ffffffffffffffffffffffffffffffffffffffff16908060010154908060020154908060030160009054906101000a900460ff16905084565b6000600560008573ffffffffffffffffffffffffffffffffffffffff1673ffffffffffffffffffffffffffffffffffffffff1681526020019081526020016000205482111561065c576040517f08c379a0000000000000000000000000000000000000000000000000000000008152600401610653906113d9565b60405180910390fd5b600660008573ffffffffffffffffffffffffffffffffffffffff1673ffffffffffffffffffffffffffffffffffffffff16815260200190815260200160002060003373ffffffffffffffffffffffffffffffffffffffff1673ffffffffffffffffffffffffffffffffffffffff1681526020019081526020016000205482111561071b576040517f08c379a000000000000000000000000000000000000000000000000000000000815260040161071290611445565b60405180910390fd5b81600560008673ffffffffffffffffffffffffffffffffffffffff1673ffffffffffffffffffffffffffffffffffffffff168152602001908152602001600020600082825461076a9190611494565b9250508190555081600560008573ffffffffffffffffffffffffffffffffffffffff1673ffffffffffffffffffffffffffffffffffffffff16815260200190815260200160002060008282546107c091906114c8565b9250508190555081600660008673ffffffffffffffffffffffffffffffffffffffff1673ffffffffffffffffffffffffffffffffffffffff16815260200190815260200160002060003373ffffffffffffffffffffffffffffffffffffffff1673ffffffffffffffffffffffffffffffffffffffff16815260200190815260200160002060008282546108539190611494565b925050819055508273ffffffffffffffffffffffffffffffffffffffff168473ffffffffffffffffffffffffffffffffffffffff167fddf252ad1be2c89b69c2b068fc378daa952ba7f163c4a11628f55a4df523b3ef846040516108b791906110d9565b60405180910390a3600190509392505050565b6000806000806000805490508510610917576040517f08c379a000000000000000000000000000000000000000000000000000000000815260040161090e9061156a565b60405180910390fd5b600080868154811061092c5761092b61158a565b5b906000526020600020906004020190508060000160009054906101000a900473ffffffffffffffffffffffffffffffffffffffff16816001015482600201548360030160009054906101000a900460ff169450945094509450509193509193565b600460009054906101000a900460ff1681565b60056020528060005260406000206000915090505481565b600460019054906101000a900473ffffffffffffffffffffffffffffffffffffffff1681565b600280546109eb9061135c565b80601f0160208091040260200160405190810160405280929190818152602001828054610a179061135c565b8015610a645780601f10610a3957610100808354040283529160200191610a64565b820191906000526020600020905b815481529060010190602001808311610a4757829003601f168201915b505050505081565b600082118015610a7c5750600081115b610abb576040517f08c379a0000000000000000000000000000000000000000000000000000000008152600401610ab290611605565b60405180910390fd5b600060405180608001604052803373ffffffffffffffffffffffffffffffffffffffff16815260200184815260200183815260200160011515815250908060018154018082558091505060019003906000526020600020906004020160009091909190915060008201518160000160006101000a81548173ffffffffffffffffffffffffffffffffffffffff021916908373ffffffffffffffffffffffffffffffffffffffff160217905550602082015181600101556040820151816002015560608201518160030160006101000a81548160ff02191690831515021790555050505050565b60008080549050905090565b600081600560003373ffffffffffffffffffffffffffffffffffffffff1673ffffffffffffffffffffffffffffffffffffffff168152602001908152602001600020541015610c31576040517f08c379a0000000000000000000000000000000000000000000000000000000008152600401610c28906113d9565b60405180910390fd5b81600560003373ffffffffffffffffffffffffffffffffffffffff1673ffffffffffffffffffffffffffffffffffffffff1681526020019081526020016000206000828254610c809190611494565b9250508190555081600560008573ffffffffffffffffffffffffffffffffffffffff1673ffffffffffffffffffffffffffffffffffffffff1681526020019081526020016000206000828254610cd691906114c8565b925050819055508273ffffffffffffffffffffffffffffffffffffffff163373ffffffffffffffffffffffffffffffffffffffff167fddf252ad1be2c89b69c2b068fc378daa952ba7f163c4a11628f55a4df523b3ef84604051610d3a91906110d9565b60405180910390a36001905092915050565b6006602052816000526040600020602052806000526040600020600091509150505481565b6000805490508110610db8576040517f08c379a0000000000000000000000000000000000000000000000000000000008152600401610daf9061156a565b60405180910390fd5b6000808281548110610dcd57610dcc61158a565b5b906000526020600020906004020190508060030160009054906101000a900460ff16610e2e576040517f08c379a0000000000000000000000000000000000000000000000000000000008152600401610e2590611671565b60405180910390fd5b80600201543414610e74576040517f08c379a0000000000000000000000000000000000000000000000000000000008152600401610e6b906116dd565b60405180910390fd5b8060000160009054906101000a900473ffffffffffffffffffffffffffffffffffffffff1673ffffffffffffffffffffffffffffffffffffffff166108fc349081150290604051600060405180830381858888f19350505050158015610ede573d6000803e3d6000fd5b5060008160030160006101000a81548160ff0219169083151502179055505050565b600081519050919050565b600082825260208201905092915050565b60005b83811015610f3a578082015181840152602081019050610f1f565b83811115610f49576000848401525b50505050565b6000601f19601f8301169050919050565b6000610f6b82610f00565b610f758185610f0b565b9350610f85818560208601610f1c565b610f8e81610f4f565b840191505092915050565b60006020820190508181036000830152610fb38184610f60565b905092915050565b600080fd5b600073ffffffffffffffffffffffffffffffffffffffff82169050919050565b6000610feb82610fc0565b9050919050565b610ffb81610fe0565b811461100657600080fd5b50565b60008135905061101881610ff2565b92915050565b6000819050919050565b6110318161101e565b811461103c57600080fd5b50565b60008135905061104e81611028565b92915050565b6000806040838503121561106b5761106a610fbb565b5b600061107985828601611009565b925050602061108a8582860161103f565b9150509250929050565b60008115159050919050565b6110a981611094565b82525050565b60006020820190506110c460008301846110a0565b92915050565b6110d38161101e565b82525050565b60006020820190506110ee60008301846110ca565b92915050565b60006020828403121561110a57611109610fbb565b5b60006111188482850161103f565b91505092915050565b600061112c82610fc0565b9050919050565b61113c81611121565b82525050565b60006080820190506111576000830187611133565b61116460208301866110ca565b61117160408301856110ca565b61117e60608301846110a0565b95945050505050565b6000806000606084860312156111a05761119f610fbb565b5b60006111ae86828701611009565b93505060206111bf86828701611009565b92505060406111d08682870161103f565b9150509250925092565b6111e381610fe0565b82525050565b60006080820190506111fe60008301876111da565b61120b60208301866110ca565b61121860408301856110ca565b61122560608301846110a0565b95945050505050565b600060ff82169050919050565b6112448161122e565b82525050565b600060208201905061125f600083018461123b565b92915050565b60006020828403121561127b5761127a610fbb565b5b600061128984828501611009565b91505092915050565b60006020820190506112a760008301846111da565b92915050565b600080604083850312156112c4576112c3610fbb565b5b60006112d28582860161103f565b92505060206112e38582860161103f565b9150509250929050565b6000806040838503121561130457611303610fbb565b5b600061131285828601611009565b925050602061132385828601611009565b9150509250929050565b7f4e487b7100000000000000000000000000000000000000000000000000000000600052602260045260246000fd5b6000600282049050600182168061137457607f821691505b6020821081036113875761138661132d565b5b50919050565b7f496e73756666696369656e742062616c616e6365000000000000000000000000600082015250565b60006113c3601483610f0b565b91506113ce8261138d565b602082019050919050565b600060208201905081810360008301526113f2816113b6565b9050919050565b7f496e73756666696369656e7420616c6c6f77616e636500000000000000000000600082015250565b600061142f601683610f0b565b915061143a826113f9565b602082019050919050565b6000602082019050818103600083015261145e81611422565b9050919050565b7f4e487b7100000000000000000000000000000000000000000000000000000000600052601160045260246000fd5b600061149f8261101e565b91506114aa8361101e565b9250828210156114bd576114bc611465565b5b828203905092915050565b60006114d38261101e565b91506114de8361101e565b9250827fffffffffffffffffffffffffffffffffffffffffffffffffffffffffffffffff0382111561151357611512611465565b5b828201905092915050565b7f547261646520646f6573206e6f74206578697374000000000000000000000000600082015250565b6000611554601483610f0b565b915061155f8261151e565b602082019050919050565b6000602082019050818103600083015261158381611547565b9050919050565b7f4e487b7100000000000000000000000000000000000000000000000000000000600052603260045260246000fd5b7f496e76616c696420747261646520706172616d65746572730000000000000000600082015250565b60006115ef601883610f0b565b91506115fa826115b9565b602082019050919050565b6000602082019050818103600083015261161e816115e2565b9050919050565b7f5472616465206973206e6f742061637469766500000000000000000000000000600082015250565b600061165b601383610f0b565b915061166682611625565b602082019050919050565b6000602082019050818103600083015261168a8161164e565b9050919050565b7f496e636f72726563742076616c75652073656e74000000000000000000000000600082015250565b60006116c7601483610f0b565b91506116d282611691565b602082019050919050565b600060208201905081810360008301526116f6816116ba565b905091905056fea264697066735822122014e25520fb1b32d3b702630414cfbfb39c5519fdd16b68930a6e911ef48531e964736f6c634300080d0033",
  "immutableReferences": {},
  "source": "// SPDX-License-Identifier: MIT\npragma solidity ^0.8.13;\n\n\ncontract Token {\n    struct Trade {\n        address payable seller; // Making seller payable\n        uint256 quantity;\n        uint256 price;\n        bool isActive;\n    }\n\n    Trade[] public trades;\n\n    string public name = \"YourTokenName\";\n    string public symbol = \"YTN\";\n    uint256 public totalSupply = 1000000; // 1 million tokens\n    uint8 public decimals = 18;\n    address public owner;\n\n    mapping(address => uint256) public balanceOf;\n    mapping(address => mapping(address => uint256)) public allowance;\n\n    event Transfer(address indexed from, address indexed to, uint256 value);\n    event Approval(address indexed owner, address indexed spender, uint256 value);\n\n    constructor() {\n        balanceOf[msg.sender] = totalSupply;\n        owner = msg.sender;\n    }\n\n    function transfer(address _to, uint256 _value) public returns (bool success) {\n        require(balanceOf[msg.sender] >= _value, \"Insufficient balance\");\n        balanceOf[msg.sender] -= _value;\n        balanceOf[_to] += _value;\n        emit Transfer(msg.sender, _to, _value);\n        return true;\n    }\n\n    function approve(address _spender, uint256 _value) public returns (bool success) {\n        allowance[msg.sender][_spender] = _value;\n        emit Approval(msg.sender, _spender, _value);\n        return true;\n    }\n\n    function transferFrom(address _from, address _to, uint256 _value) public returns (bool success) {\n        require(_value <= balanceOf[_from], \"Insufficient balance\");\n        require(_value <= allowance[_from][msg.sender], \"Insufficient allowance\");\n        balanceOf[_from] -= _value;\n        balanceOf[_to] += _value;\n        allowance[_from][msg.sender] -= _value;\n        emit Transfer(_from, _to, _value);\n        return true;\n    }\n   \n    function createTrade(uint256 _quantity, uint256 _price) public {\n        require(_quantity > 0 && _price > 0, \"Invalid trade parameters\");\n        trades.push(Trade(payable(msg.sender), _quantity, _price, true));\n    }\n\n    function acceptTrade(uint256 tradeIndex) public payable {\n        require(tradeIndex < trades.length, \"Trade does not exist\");\n        Trade storage trade = trades[tradeIndex];\n        require(trade.isActive, \"Trade is not active\");\n        require(msg.value == trade.price, \"Incorrect value sent\");\n\n        trade.seller.transfer(msg.value);\n        trade.isActive = false;\n    }\n\n    function getTradeCount() public view returns (uint256) {\n        return trades.length;\n    }\n\n    function getTrade(uint256 index) public view returns (address seller, uint256 quantity, uint256 price, bool isActive) {\n        require(index < trades.length, \"Trade does not exist\");\n        Trade storage trade = trades[index];\n        return (trade.seller, trade.quantity, trade.price, trade.isActive);\n    }\n}\n",
  "sourcePath": "/Users/nevilitaliya/Documents/energix/contracts/YourToken.sol",
  "compiler": {
    "name": "solc",
    "version": "0.8.13+commit.abaa5c0e.Emscripten.clang"
  },
  "schemaVersion": "3.4.16",
  "updatedAt": "2024-03-29T16:27:41.649Z",
  "networkType": "ethereum",
  "devdoc": {
    "kind": "dev",
    "methods": {},
    "version": 1
  },
  "userdoc": {
    "kind": "user",
    "methods": {},
    "version": 1
  }
}